:100000000C944F020C945F030C94B5020C946C0298
:100010000C946C020C946C020C946C020C94B80757
:100020000C946C020C946C020C9483110C946C0272
:100030000C946C020C946C020C946C020C946C0288
:100040000C946C020C946C020C946C020C946C0278
:100050000C946C026C0D790D850DDD0DE80D470ECD
:10006000740E810E860E9A0EA60E860EE50FE50F13
:10007000E50FE50FEA0E1F0F2D0F660F780FE50F46
:10008000E50FE50FE50FE50FE50FE50FE50FE50FD0
:10009000E50FE50F980F9B0FB30FAE27D027312840
:1000A0003728AB27AB27AB27AB27AB27AB27C62817
:1000B000CB28CD28DA28F22801740801FF00016B53
:1000C0000802FF0001720804FF0001750808FF0024
:1000D00000140810FF00017408010408016B0802F5
:1000E00004100172080404040175080804020014D5
:1000F0000810040101140820FF0001110840FF004E
:1001000000110880FF0000120001FF00001A000229
:10011000FF0000220004FF0000210008FF00002A69
:100120000010FF00001C0101FF00001B0102FF0086
:1001300000230104FF00002B0108FF000034011020
:10014000FF0000150201FF00001D0202FF00002455
:100150000204FF00002D0208FF00002C0210FF0027
:1001600000160301FF00001E0302FF000026030427
:10017000FF0000250308FF00002E0310FF000045CC
:100180000401FF0000460402FF00003E0404FF00DB
:10019000003D0408FF0000360410FF00004D05017B
:1001A000FF0000440502FF0000430504FF00003C7F
:1001B0000508FF0000350510FF00005A0601FF008A
:1001C000004B0602FF0000420604FF00003B060849
:1001D000FF0000330610FF0000290701FF0000594F
:1001E0000702FF00003A0704FF0000310708FF0084
:1001F00000320710FF00006600010401016C0001DD
:100200000408016900010410017D00010310017A56
:1002100000010404004E0702060800550702060408
:10022000005407020010005B07020710004C070291
:1002300005020052070205010041070207080049B4
:1002400007020704004A07020002000E0001040230
:10025000005800010302000D00010301005D0001D0
:100260000702007600010701000000000000000006
:10027000000000000000000020202020202020207E
:1002800020000020202020202020200000000174D9
:100290007264008373636C0002666469000000216D
:1002A00010422063308440A550C660E77008812961
:1002B000914AA16BB18CC1ADD1CEE1EFF1311210F9
:1002C0000273325222B5529442F772D662399318B1
:1002D000837BB35AA3BDD39CC3FFF3DEE362244305
:1002E0003420040114E664C774A44485546AA54B01
:1002F000B528850995EEE5CFF5ACC58DD553367299
:100300002611163006D776F6669556B4465BB77A50
:10031000A719973887DFF7FEE79DD7BCC7C448E524
:10032000588668A7784008611802282338CCC9EDA0
:10033000D98EE9AFF9488969990AA92BB9F55AD438
:100340004AB77A966A711A500A333A122AFDDBDCF0
:10035000CBBFFB9EEB799B588B3BBB1AABA66C8744
:100360007CE44CC55C222C033C600C411CAEED8F40
:10037000FDECCDCDDD2AAD0BBD688D499D977EB6D8
:100380006ED55EF44E133E322E511E700E9FFFBE90
:10039000EFDDDFFCCF1BBF3AAF599F788F8891A963
:1003A00081CAB1EBA10CD12DC14EF16FE18010A13A
:1003B00000C230E3200450254046706760B983983E
:1003C00093FBA3DAB33DC31CD37FE35EF3B102908A
:1003D00012F322D2323542145277625672EAB5CB0A
:1003E000A5A89589856EF54FE52CD50DC5E234C3DA
:1003F00024A01481046674476424540544DBA7FADE
:10040000B79987B8975FE77EF71DC73CD7D326F229
:10041000369106B01657667676154634564CD96D29
:10042000C90EF92FE9C899E9898AB9ABA944586579
:100430004806782768C018E1088238A3287DCB5C7D
:10044000DB3FEB1EFBF98BD89BBBAB9ABB754A54C9
:100450005A376A167AF10AD01AB32A923A2EFD0F49
:10046000ED6CDD4DCDAABD8BADE89DC98D267C0719
:100470006C645C454CA23C832CE01CC10C1FEF3E1D
:10048000FF5DCF7CDF9BAFBABFD98FF89F176E3669
:100490007E554E745E932EB23ED10EF01E00112496
:1004A0001FBECFE5D8E0DEBFCDBF10E0A0E6B0E0D4
:1004B000ECE0FDE702C005900D92AC3FB107D9F723
:1004C00016E0ACEFB0E001C01D92A23EB107E1F72B
:1004D0000E948D120C94843E0C940000479A8AE08E
:1004E00085BF8BB7806C8BBFC398089512BE88E818
:1004F0008CBF8DE083BF1DBC1CBC86E38BBD80EB35
:100500008ABD81E08EBD82E189BF08958FEF8BBBEC
:100510008EE088BB15BA8CE082BB1ABA8BEB87BB26
:1005200014BA81EC81BB0895E2EAF2E08FEF819387
:1005300092E0EB3AF907D9F710920A0110920B01F9
:1005400010920C010895982F80910B018823E1F7F8
:10055000BA9AC2988091AD02897F8093AD02909340
:100560000C018CE080930B0108951F920F920FB63F
:100570000F9211242F933F938F939F938091AE02FC
:1005800084FD1EBC819B04C08091B002816003C0C9
:100590008091B0028E7F8093B002859B13C0849BB4
:1005A0000BC08091AF0280FD07C08FEF8ABB8091A6
:1005B000AA0280958F7168C08091AF02826080939B
:1005C000AF0263C093B380918900981709F458C0B3
:1005D00090918A009F6190938A0033B33093890091
:1005E000832F806F8F3F19F1232F30FD05C080913D
:1005F000A202982390938A0021FD07C080918A006F
:100600009091A302892380938A0022FD07C08091E4
:100610008A009091A402892380938A0023FD07C059
:1006200080918A009091A502892380938A00832F6C
:100630008F608F3F29F1232F34FD07C080918A00FE
:100640009091A602892380938A0025FD07C080919E
:100650008A009091A702892380938A0026FD07C013
:1006600080918A009091A802892380938A0037FDA7
:1006700007C080918A009091A902892380938A0003
:100680008FEF8ABB80918A008BBB8091AF0281FD86
:1006900007C0C39A839BFECF1ABA8FEF8BBBC39858
:1006A00081E08EBD8091AF0287FF90989F918F91DE
:1006B0003F912F910F900FBE0F901F9018951F9292
:1006C0000F920FB60F9211242F938F939F93EF9356
:1006D000FF9388E002C0815019F0829BFCCFD6C006
:1006E00096B3947080910B01882361F4992309F0EB
:1006F000CDC010920A0181E080930B018091AD0280
:100700008E7F5CC080910B01882381F080910B016A
:10071000893060F480910A018695992321F08068E0
:1007200080930A010AC080930A01A4C080910B0142
:10073000893069F4992309F09DC08091AD02982F0A
:10074000909591708E7F892B8093AD0293C080919C
:100750000B018A3009F055C010920B018091AD0257
:1007600080FD3FC0E0910D0190910A019E3F39F458
:1007700090910C0180910B018823E1F712C09A3F00
:10078000D1F482608093AD028091B00281FF7EC07F
:100790008D7F8093B00290910F0180910B0188238F
:1007A000E1F7BA9AC2988091AD02897F8093AD0239
:1007B00090930C0124C09A3A21F484608093AD0296
:1007C00065C0EF5F2E2F2F71E15080910E01281729
:1007D00009F45CC0F0E0E659FD4F908320930D01D1
:1007E00055C080910B018823E1F7BA9AC298809195
:1007F000AD02897F8093AD028EEF80930C018CE077
:100800003CC080910B018C30A8F180910B018431A8
:1008100008F580910B018C3049F480910C01809394
:100820000A018091AD0281608093AD0220910A019E
:1008300020FF0BC0C29A8091AD02982F90959170C5
:100840008E7F892B8093AD0201C0C298269520939C
:100850000A0110C080910B01843131F48091AD0206
:1008600080FD07C0C29806C080910B01853141F41C
:10087000BA98C29A80910B018F5F80930B0106C0DA
:1008800080910B01863111F410920B01FF91EF91D1
:100890009F918F912F910F900FBE0F901F901895E1
:1008A000E0E2F1E0E80FF11D80810895E0E2F1E07F
:1008B000E80FF11D918180E0208130E0282B392B59
:1008C000C9010895E0E2F1E0E80FF11D318120E077
:1008D000808190E0282B392B40E050E0828190E02D
:1008E000A0E0B0E0DC0199278827282B392B4A2B80
:1008F0005B2BB901CA010895E0E2F1E0E80FF11DB8
:10090000238130E040E050E0522F44273327222754
:10091000828190E0A0E0B0E0DC0199278827282BB5
:10092000392B4A2B5B2B918180E0608170E0862B14
:10093000972BA0E0B0E0282B392B4A2B5B2BB90179
:10094000CA0108958091AE0281FD1BC080EE91E244
:1009500090936702809366028CE69AE09093AC02D3
:100960008093AB028CE79BE09093A7018093A60154
:100970008CE59DE0909369028093680288EB9AE190
:1009800018C080EF90E1909367028093660280E93F
:1009900096E09093AC028093AB029093A701809372
:1009A000A60184E196E0909369028093680288E250
:1009B0009CE0909365028093640280E797E19093B6
:1009C000FE008093FD0082E08093FF000895109266
:1009D000E304109202014091AE0242FD1BC09091CF
:1009E000210180E02091200130E0822B932BA0E0B8
:1009F000B0E08093030190930401A0930501B093AC
:100A000006010E94A20480ED97E09093010180937B
:100A10000001D1C180912001833209F4A7C2843240
:100A200028F5843109F439C1853180F4813109F424
:100A300063C0823120F4803109F06BC23CC0823146
:100A400009F409C1833109F064C222C1803209F47A
:100A500099C1813220F4853109F05BC274C18132C1
:100A600009F4A3C1823209F054C27EC2823309F470
:100A7000EFC1833368F4853209F4CCC1853208F4C0
:100A80009CC1803309F491C1813309F042C2D9C1BC
:100A9000853309F4F7C1863338F4833309F4E5C1AB
:100AA000843309F036C2ECC1803409F414C28A35AB
:100AB00009F02FC22CC29091220180E020912101E7
:100AC00030E0822B932B9093010180930001909151
:100AD000240180E02091230130E0822B932BA0E0C1
:100AE000B0E08093030190930401A0930501B093BB
:100AF00006010E94A20434C29091220180E060911C
:100B0000210170E0682B792B660F771F660F771F26
:100B100070936702609366029091240180E02091B7
:100B20002301E22FF0E0E82BF92BEE0FFF1FEE0F71
:100B3000FF1FF093AC02E093AB029091260180E09E
:100B40002091250130E0822B932B880F991F880F6D
:100B5000991F9093A7018093A6019091280180E0AE
:100B60002091270130E0822B932B880F991F880F4B
:100B7000991F909369028093680290912A0180E006
:100B80002091290130E0822B932B880F991F880F29
:100B9000991F909365028093640290912C0180E0EC
:100BA00020912B0130E0822B932B9093FE008093B9
:100BB000FD0082E08093FF0020912D0188E090E00D
:100BC000821B9109880F991F8093020190912F0138
:100BD00080E020912E0130E0822B932B9093010135
:100BE000809300013091310120E08091300190E04C
:100BF000282B392B40E050E08091320190E0A0E0BA
:100C0000B0E0DC0199278827282B392B4A2B5B2B56
:100C10002093030130930401409305015093060192
:100C200060597A4109F09EC1E850F74009F09AC135
:100C300080EB9DE1909367028093660288EE93E0DB
:100C4000909369028093680280ED97E0909365022B
:100C50008093640287C19091220180E0209121015C
:100C600030E0822B932B880F991F880F991F909348
:100C70006702809366029091240180E02091230115
:100C800030E0822B932B9093FE008093FD0068C18F
:100C900080912101809307018EC09091220180E014
:100CA0002091210130E0822B932B880F991F880F10
:100CB000991F90936902809368029091240180E0CB
:100CC0002091230130E0822B932B880F991F880FEE
:100CD000991F90936502809364022091250188E01A
:100CE00090E0821B9109880F991F809302019091D7
:100CF000270180E02091260130E0822B932B9093F6
:100D00000101809300013091290120E080912801A8
:100D100090E0282B392B40E050E080912A0190E0B0
:100D2000A0E0B0E0DC0199278827282B392B4A2B3B
:100D30005B2B2093030130930401409305015093F2
:100D400006018BE008959091270180E02091260113
:100D500030E0822B932BA0E0B0E02091280130E01E
:100D600040E050E0A90133272227822B932BA42BAC
:100D7000B52B880F991FAA1FBB1F90930901809361
:100D800008017EC03091220120E08091210190E095
:100D9000822B932B9093010180930001892B09F002
:100DA000E5C04E7F4093AE022EC08091210180931A
:100DB00008011092090182E008959091220180E0DB
:100DC0002091210130E0822B932B9093630180933B
:100DD00062015091B10240911F01852F90E003976D
:100DE000242F30E060916202709163022817390766
:100DF00064F44D5B451B4093A501615070407093B6
:100E000061016093600183E008954D5F451B40934D
:100E1000A501F5CF809162019091630101979093B4
:100E2000630180936201892B09F49EC04062409364
:100E3000AE0280E480931F018093B2028091B102E0
:100E40000895809122018093080110920901DBCF5F
:100E50009091220180E02091210130E0822B932BA0
:100E60009093090180930801CECF8091210123E066
:100E7000829FC001112490930901809308019BCFA8
:100E800089E008952091340130E040E050E0522F95
:100E90004427332722278091330190E0A0E0B0E07F
:100EA000DC0199278827282B392B4A2B5B2B909123
:100EB000320180E06091310170E0862B972BA0E039
:100EC000B0E0282B392B4A2B5B2B30930901209360
:100ED000080185E1089590912A0180E0209129017F
:100EE00030E0822B932BA0E0B0E020912B0130E08A
:100EF00040E050E0A90133272227822B932BA42B1B
:100F0000B52B90930901809308018CE008958AE045
:100F100008952091240130E040E050E0522F442712
:100F2000332722278091230190E0A0E0B0E0DC018C
:100F300099278827282B392B4A2B5B2B909122014C
:100F400080E06091210170E0862B972BA0E0B0E05B
:100F5000282B392B4A2B5B2B309309012093080156
:100F600085E0089583E1089581E0089583E0089580
:100F70001F920F920FB60F9211242F933F934F930E
:100F80005F936F937F938F939F93AF93BF93EF93F1
:100F9000FF931DBC1CBC8091AE0280FD05C086E3A2
:100FA0008BBD80EB8ABDC8C183FD0BC0C39909C04E
:100FB00082B3805882BB80918A0090E48927809315
:100FC0008A0089B78F7E89BF8FB780688FBF3091C5
:100FD000B2029091B102A0911F010BC0E92FF0E085
:100FE000E05EFE4FB0E0AC59BE4F8C9180839F5FB6
:100FF000A22FA31720F42A2F2F5F903278F390931B
:10100000B102A0931F0148C09091B1029923B9F198
:101010008091AE0282FD02C0E2E013C0E0912001A7
:10102000E051E63228F4F0E0E756FF4FE08109C0D6
:10103000EA3311F4ECE005C0EA3411F0E5E001C058
:10104000EAE09E17E0F00E94E7049091B102981B3D
:101050009093B102992389F0A82FB0E0A05EBE4F13
:10106000E0E2F1E0292F30E02E0F3F1F02C08D910A
:101070008193E217F307D9F70FC0C39A0DC080918F
:10108000B202803439F0C3988091AE028E7F809393
:10109000AE022AC0C39A28C02091FD003091FE0004
:1010A0002115310509F58091FF008823E9F480912D
:1010B000030190910401A0910501B09106010097F0
:1010C000A105B10589F480910701882369F4809115
:1010D000000190910101892B39F4809108019091D0
:1010E0000901892B09F490CF8091080190910901A1
:1010F0000097E1F1C39A4091B102242F30E0281704
:101100003907E0F0242F281B2093B102222371F02D
:10111000DC01A05EBE4FE0E2F1E030E02E0F3F1FA9
:1011200002C08D918193E217F307D9F7109209015C
:10113000109208018091AE02877F0BC0821B930B37
:1011400090930901809308011092B1028091AE0240
:1011500088608093AE0290911F018091B20298172F
:1011600010F080E801C084E08BBDDEC021153105A0
:1011700071F0C39890916602809167028BBD9ABD11
:10118000215030403093FE002093FD00CDC080916F
:10119000FF00823059F4C3988091AB029091AC0269
:1011A0009BBD8ABD81E08093FF00BEC0813051F4B9
:1011B000C3989091A6018091A7018BBD9ABD109212
:1011C000FF00B2C0409103015091040160910501FC
:1011D00070910601411551056105710509F459C069
:1011E0008091E3048823F1F49091B1029923D1F026
:1011F0008091200180931A0180E18093E304C398D9
:10120000892F81508093B102882361F0E0E2F1E000
:10121000282F30E02E0F3F1F02C081818193E217FB
:10122000F307D9F73091E304332309F45FC0209129
:101230001A0127FF05C0909164028091650204C0E5
:1012400090916802809169028BBD9ABD30FF03C006
:10125000220F20931A01932F91509093E304992326
:1012600059F0413051056105710509F05DC080916B
:101270000201981709F058C041505040604070403A
:10128000409303015093040160930501709306019C
:101290004BC060910701662359F14091B102423081
:1012A00028F1C3989091210180E02091200130E045
:1012B000282B392B220F331F220F331F842F8250EC
:1012C0008093B102882361F0E0E2F1E0482F50E022
:1012D0004E0F5F1F02C082818193E417F507D9F793
:1012E0003BBD2ABD6150609307011EC0C39A1CC05C
:1012F000209100013091010121153105A9F086E30B
:101300008BBD80EB8ABDC901019790930101809349
:101310000001892B21F48091AE02877F03C0809168
:10132000AE0288608093AE02C39B03C084E08BBD95
:101330001ABC89B7806189BFFF91EF91BF91AF91CE
:101340009F918F917F916F915F914F913F912F91DD
:101350000F900FBE0F901F9018958091AE0282FDE6
:1013600002C082E00895E0912001E051E63228F4C5
:10137000F0E0E756FF4F80810895EA3311F48CE0E6
:101380000895EA3411F085E008958AE00895909177
:10139000AE0297FD33C08091B00280FD2FC08091D6
:1013A0001B018737D9F480911C018823B9F48091FF
:1013B0001D01882399F480911E01882379F49E7F72
:1013C00090689093AE021092B102109203011092B5
:1013D00004011092050110920601089580911C01EC
:1013E00080931B0180911D0180931C0180911E013F
:1013F00080931D0183E08093FC0008951092B20257
:1014000010921F0140911B01403811F0493789F4B7
:101410008091AE028E7F80688093AE021092B102FE
:10142000109203011092040110920501109206011E
:1014300012C090911E0180E020911D0130E0822BAE
:10144000932BA0E0B0E08093030190930401A0935C
:101450000501B0930601842F8757823020F0403871
:1014600011F0493769F48091030190910401A09132
:101470000501B091060181349105A105B10578F00F
:1014800080911C0180931B0180911D0180931C01A0
:1014900080911E0180931D0183E08093FC000895DC
:1014A00080911C01813019F08230D9F414C08091F0
:1014B000AE028F778093AE02E2EAF2E08FEF819383
:1014C00092E0EB3AF907D9F710920A0110920B015A
:1014D00010920C010895909A8091AF0280688093D9
:1014E000AF0208951F9384E690E00E94B01310921B
:1014F0000B0180910B018823E1F7BA9AC298809181
:10150000AD02897F8093AD028FEF80930C018CE058
:1015100080930B0118EC04C08AE090E00E94B013A5
:10152000115031F08091AD0281FFF6CF82FFF4CFF0
:101530008091AD0281FD03C080E090E006C090E0A4
:1015400082FF91E081E09827892F1F9108950E94E2
:10155000720AE2EAF2E08FEF819392E0EB3AF90748
:10156000D9F710920A0110920B0110920C01089504
:101570001F9318EC04C08AE090E00E94B013115051
:1015800021F08091AD0281FFF6CF8091AD0281FD07
:1015900003C080E090E006C090E082FF91E081E02F
:1015A0009827892F1F910895A2E0B0E0EAEDFAE0B4
:1015B0000C944F3E209103013091040140910501AC
:1015C00050910601FE013196213431054105510546
:1015D00038F083EC91E064E671E040E450E005C04F
:1015E00083EC91E064E671E0A9019F010E94CF368F
:1015F00089818093B20210921F01803459F090E0EB
:10160000A0E0B0E08093030190930401A093050152
:10161000B09306012296E2E00C946B3EC098809154
:10162000AE021092FC008E778093AE028091AF02E2
:1016300082778093AF0290980E94F01480E00E941D
:10164000C71481E00E94C71482E00E94C71483E09F
:101650000E94C7140895A6E1B0E0E1E3FBE00C941A
:10166000493E8AE892E060E670E00E94A234892B4D
:1016700009F052C010E06E010894C11CD11C9AE020
:10168000E92EF12CEC0EFD1E0AE08AE892E0B6018C
:101690000E94C835892B71F58A85882359F1C701C5
:1016A0000E94E83D8A85833781F78B858E3669F7FE
:1016B0008C85813651F78D85803739F788898E3250
:1016C00021F78989833709F78A898E36F1F68B8964
:1016D0008136D9F68E8580538A30B8F69F8590532F
:1016E0009A3098F6809F802D1124890F181768F67C
:1016F000182FCBCF212F2F5F243608F023E6822F1F
:101700006AE00E94113E905D90939000822F0E94AB
:10171000113E805D80938F006696E8E00C94653EF4
:101720000F931F93182F803F21F48091AD028061A9
:101730007CC1805E823020F48091AD02886075C1EA
:101740008091AD0284FDD3C0143121F483FD09C022
:10175000806405C0113129F483FD03C08062809349
:10176000AD028091AE0287FD31C0282F217080FD2F
:101770001BC08091AD0283FD08C0193711F01535EB
:1017800039F48091AE028D7F08C01A3569F402C029
:101790001D3551F48091AE0282608093AE0280913B
:1017A000AD0280688093AD028091AD0283FD0EC0D2
:1017B0001B3711F01E3451F490E0222309F491E01C
:1017C0008091AE028E7F892B8093AE02133819F47C
:1017D0000E94D71547C01930A9F48091AD0283FD4E
:1017E00041C00E940E0BC09A83EC91E062E670E06B
:1017F00041E00E94803C8091AF0280688093AF02FC
:10180000909A06C01A3039F48091AD0283FD2AC047
:10181000C198C19A27C0153021F48091AE02806131
:1018200005C0163031F48091AE028F7E8093AE02F7
:1018300019C0143021F48091AF02806111C01C30B6
:1018400021F48091AF028F7E0BC0133021F4809180
:10185000AF02806205C01B3029F48091AF028F7DFA
:101860008093AF028091AE0280FD1BC0173711F04C
:101870001130B9F48091AF02982F92959695969574
:10188000937090959170292F2295220F220F207C22
:101890008F7B822B8093AF02992311F0C39A01C0F2
:1018A000C398173049F40E940E0BC09A83EC91E064
:1018B0006CE670E041E011C01837C9F48091AE02C7
:1018C00087FD15C08091AF0287FD11C00E942B0BD0
:1018D00083EC91E06BE870E04AE00E94803C8091EC
:1018E000AF0280688093AF02909AC198C19A8091AC
:1018F000AF0285FD02C050E001C055E09091AD02FD
:10190000969596959695917066E0569F9001112454
:10191000F901E854FF4F4491F901E754FF4F8491D6
:10192000882309F46EC0811709F069C0491709F0CE
:1019300066C04091AD024295417081F4E3E05E9F44
:10194000F0011124EE0FFF1FE654FF4F6491C9010F
:1019500085549F4FFC019491862F09C0F901E454EE
:10196000FF4F8491F901E354FF4FE4919E2F8F3F85
:1019700089F0E82FF0E0442331F0EE55FD4F8081EF
:10198000892B808309C0EE55FD4F90958081892376
:10199000808313C0442389F0E3E05E9FF0011124AB
:1019A000EE0FFF1FE654FF4F4491C90185549F4F2E
:1019B000FC018491142F082F0AC0F901E454FF4F51
:1019C0008491F901E354FF4FE491182F0E2F1F3F2C
:1019D000C1F082E090E00E94B0138091AD02E12F4F
:1019E000F0E084FF05C0EE55FD4F8081802B05C0DF
:1019F000EE55FD4F009580818023808302C05F5F9C
:101A000084CF8091AA0290E0807790708034910515
:101A100019F40E940E0B03C0809709F0C09A8FEF53
:101A2000809389008091AD02877E8093AD021F91E3
:101A30000F910895E0910E0180910D018E1791F0A4
:101A4000F0E0E659FD4F80810E94900B8FB78F77B1
:101A50008FBF80910E018F5F8F7180930E018FB7C2
:101A600080688FBF8091AF0284FF22C08091AE0258
:101A700080FD1EC08091A3029091A20289239091C3
:101A8000A40289239091A50289239091A60289231B
:101A90009091A70289239091A80289239091A9028D
:101AA00089239091AA0289238F3F11F49698089573
:101AB000969A0895A6E0B0E0E0E6FDE00C944B3E77
:101AC00080911C01E82FF0E0E332F10508F07DC2BF
:101AD000E65DFF4F0C94763EE091B202F0E0EC59E7
:101AE000FE4F10828AE892E064E671E00E94A23420
:101AF0002BC18AE892E064E671E00E94C8357C015F
:101B0000009709F0F2C186E162C1E091B202F0E013
:101B1000EC59FE4F108205E611E083EC91E0B8012C
:101B2000409164010E94803C7C018091AE028F7BD9
:101B30008093AE02F801D8010D900020E9F78D01E5
:101B40000E1B1F0B005A1E4FC8010E94E83DC80122
:101B500065E770E00E94DF3D009739F0C8016AE751
:101B600070E00E94DF3D009729F48091AE0280640E
:101B70008093AE02E114F104A9F48091AE0286FFD5
:101B800006C080E090E065E671E00E94D223A4E602
:101B9000B1E0E3ECF1E080E201900D928150E1F7D9
:101BA00080E215C18091AE0286FF9FC180E090E087
:101BB0006FE770E00E94D22398C183EC91E00E940D
:101BC000723C7C018091AE028F7B8093AE02FFC19C
:101BD0008091CD019091CE01A091CF01B091D00123
:101BE0002091C9013091CA014091CB015091CC01A3
:101BF000821B930BA40BB50B8093030190930401FC
:101C0000A0930501B0930601209164013091650114
:101C10004091660150916701281739074A075B0711
:101C200040F4209303013093040140930501509345
:101C300006018091030190910401A0910501B091EA
:101C4000060180509040A140B04060F08FEF9FEFC0
:101C5000A0E0B0E08093030190930401A0930501FC
:101C6000B09306018091AF0284608093AF028091AF
:101C7000030190910401A0910501B0910601009724
:101C8000A105B10509F4A1C10E94D40A9EC18091A9
:101C9000640190916501A0916601B0916701809304
:101CA000030190930401A0930501B09306018050B5
:101CB0009040A140B04060F08FEF9FEFA0E0B0E017
:101CC0008093030190930401A0930501B093060152
:101CD0008091AF0288601092B2028E7F8093AF0233
:101CE00084E08093FC0071C14091640150916501D2
:101CF000609166017091670183EC91E00E94852FED
:101D000023C083EC91E00E94223C1EC0E091B2020D
:101D1000F0E084E691E0E80FF91F1082DC010D90FD
:101D20000020E9F7A81BB90BA80FB91FBD010E943D
:101D3000843A0AC0E091B202F0E0EC59FE4F108202
:101D400084E691E00E94913B7C0141C18FE790E0E5
:101D5000BE016D5F7F4FAE014F5F5F4F0E94103637
:101D60007C01009709F0C1C080E092E0A0E0B0E003
:101D70008093640190936501A0936601B09367011D
:101D8000E981FA81828190E0A0E0B0E0809368016F
:101D900090936901A0936A01B0936B018B819C8140
:101DA000AD81BE8180936C0190936D01A0936E0113
:101DB000B0936F01848D958DA68DB78D8093700142
:101DC00090937101A0937201B093730180E18093AD
:101DD000B202A0C0E091B202F0E0EC59FE4F1082D6
:101DE0001092B202F090640183E0F8228F2D65E634
:101DF00071E00E94391E892B21F0F3E0EF2EF12CC7
:101E0000E6C00F2D10E0C801019665E671E00E9462
:101E1000D22360E081E090E00F2C02C0880F991F70
:101E20000A94E2F72091A0023091A1028223932329
:101E3000892B09F061E08F2D0E946D14C6C080913E
:101E4000640183700E943D168091640190E083706C
:101E5000907001966FE770E036C090916401943005
:101E600008F0B1C060E080916501811161E0892FC7
:101E70000E946D14809165012091A0023091A10211
:101E8000882361F081E090E00090640102C0880F37
:101E9000991F0A94E2F7282B392B0DC081E090E0BE
:101EA0000090640102C0880F991F0A94E2F78095A0
:101EB0009095282339233093A1022093A00285E036
:101EC00090E060EA72E00E94D2237DC080916401BC
:101ED00090E083709070019664E671E00E947B222E
:101EE00097FD02C08F5F0CC07C011092B20212C03D
:101EF00080E090E064E671E00E947B2297FD05C0DF
:101F00008093B202EE24FF2405C01092B202E3E0F7
:101F1000EE2EF12C8091B20290E0A0E0B0E0809330
:101F2000030190930401A0930501B09306014FC0F3
:101F30000E94252348C082E090E0A0E0B0E08093BA
:101F4000030190930401A0930501B09306018091D1
:101F5000A0029091A102809364019093650182E0B8
:101F60008093B20232C09091650180E020916401BB
:101F700030E0822B932B9093A1028093A00285E006
:101F800090E060EA72E00E94D22300E010E071E08D
:101F9000E72EF12C60E0C701002E02C0880F991FC8
:101FA0000A94E2F72091A0023091A10282239323A8
:101FB000892B09F061E0802F0E946D140F5F1F4F85
:101FC0000430110539F71092B202EE24FF24C70144
:101FD0002696E6E00C94673E9091AF029160909354
:101FE000AF021092FC0010920301109204011092B3
:101FF00005011092060180911B018837D9F18937BC
:1020000018F48737A1F531C0893719F0803879F590
:1020100014C08091B00280FF06C080911C016091C5
:102020001E010E94191E1092B20210921F0180918F
:10203000AF028E7F8093AF0208958091B00280FF3F
:102040000CC080911C010E947E1C80931E0184E0C4
:102050008093B20210921F0108951092B202109262
:102060001F019E7F9093AF0208950E94500A20E0C6
:1020700030E003C00E945A0D9C0110921F0183E7BB
:1020800080931B0120931C01809103019091040116
:10209000A0910501B091060180931D01892F9A2F0F
:1020A000AB2FBB2780931E010895A2E0B0E0EBE5C3
:1020B000F0E10C944F3E4091B20283EC91E064E673
:1020C00071E050E09E012F5F3F4F0E941738282F8C
:1020D0001092B20210921F0189819A81892B31F0EE
:1020E00080911C01882311F420931C01809103012D
:1020F00090910401A0910501B09106010097A105FE
:10210000B10539F41092FC008091AF028160809398
:10211000AF022296E2E00C946B3E8091AF0281FF09
:10212000F1C0849975C080FF05C01092FC00827FC9
:102130008093AF029091FC00943078F489B3E92F3A
:10214000F0E0E55EFE4F8083892F8F5F8093FC0077
:10215000843059F50E94C70928C08091AE0287FFDC
:1021600024C0209103013091040140910501509158
:1021700006012115310541055105B9F08091B202E2
:1021800099B3E82FF0E0EC59FE4F90838F5F809376
:10219000B202215030404040504020930301309320
:1021A000040140930501509306018091AE0287FF20
:1021B0009DC08091FC00843009F098C020910301FB
:1021C000309104014091050150910601211531051E
:1021D0004105510549F48091AF0282FD05C083FDA0
:1021E00003C00E94EC0F82C08091B202803431F0B3
:1021F000211531054105510509F078C08091AF02E4
:1022000083FF03C00E94551071C01092B2026EC0CD
:102210008FEF8ABB9091FC00943050F4E92FF0E0EE
:10222000E55EFE4F80818BBB9F5F9093FC003FC0BB
:102230002091030130910401409105015091060164
:102240002115310541055105B9F080911F01E82F95
:10225000F0E0EC59FE4F90819BBB8F5F80931F0194
:1022600021503040404050402093030130930401FE
:10227000409305015093060190911F018091B20295
:102280009817A9F48091030190910401A091050190
:10229000B09106010097A105B10549F08091AF0208
:1022A00082FF03C00E94D40A02C010921F018091D5
:1022B000FC008430D9F48091030190910401A09135
:1022C0000501B09106010097A105B10579F41092BE
:1022D000FC009091AF02892F827F8093AF028091A2
:1022E000AE0287FD03C092779093AF028091AF0258
:1022F0008D7F8093AF02C39A839BFECF1ABA8FEF74
:102300008BBBC39808951F920F920FB60F921124A2
:102310002F933F934F935F936F937F938F939F93ED
:10232000AF93BF93EF93FF930E942929FF91EF9101
:10233000BF91AF919F918F917F916F915F914F91DD
:102340003F912F910F900FBE0F901F90189580E036
:1023500063EB72E00E94B7290895A2E0B0E0E3EBDE
:10236000F1E10C944F3E8091AD0287FF83C08091D4
:10237000AE0286FF0AC083EC91E040E050E060E0EE
:1023800070E00E94852F892B61F080E063EB72E0A2
:102390000E94B72983EC91E060E870E041E00E9480
:1023A000803C83EC91E040E050E060E070E00E940F
:1023B000852F892B31F08091AD028F778093AD020C
:1023C000A8C08091AD028F778093AD028091AE025C
:1023D000877D8093AE021092630210926202109287
:1023E0001F011092B1021092FE001092FD00109297
:1023F000FF0010920101109200011092030110924F
:10240000040110920501109206011092070110922A
:1024100009011092080183EC91E064E671E040E468
:1024200050E09E012F5F3F4F0E94CF3689818093FD
:10243000B2028B30A8F0809164018A3589F48091D2
:102440006501883569F480916601843549F480918D
:102450001F01865F80931F018091AE02846003C0DC
:102460008091AE028B7F8093AE028091AE0281603C
:102470008093AE029091AE0290FF4BC080911F01FD
:10248000803409F046C095FF11C040916001509121
:10249000610160E070E036E0440F551F661F771F52
:1024A0003A95D1F783EC91E00E94852F83EC91E07F
:1024B00064E671E040E450E09E012F5F3F4F0E94D0
:1024C000CF368FB78F778FBF89818093B2022091EB
:1024D000AE0225FF10C08091600190916101909340
:1024E0006302809362028091A50180931F012F7D7A
:1024F0002093AE020BC0809162029091630201961C
:10250000909363028093620210921F018FB78068DC
:102510008FBF2296E2E00C946B3EAFE3B0E0E3E9BC
:10252000F2E10C94473E2091B0029091AE0280916E
:10253000AD028F718093AD029E729093AE022A7F9E
:102540002093B0028091AF0280618F758093AF02BB
:102550008FEF8BBB8EE088BB15BA8CE082BB1ABABA
:102560008BEB87BB14BA81EC81BB479A8AE085BFAD
:102570008BB7806C8BBFC39812BE88E88CBF8DE090
:1025800083BF1DBC1CBC86E38BBD80EB8ABD81E094
:102590008EBD82E189BF8FB780688FBF84EF91E0E5
:1025A0000E94B01380E063EB72E00E94B72984EFD1
:1025B00091E00E94B0130E94A70A0E949321892BE8
:1025C00011F40E94252385E090E060EA72E00E9409
:1025D0007B221816190624F01092A1021092A00274
:1025E00080E090E08E010F5F1F4FB8010E947B22B8
:1025F000181619066CF483EC91E0B80141E00E94D2
:10260000803C892B29F48091AE0280648093AE02D5
:102610000E94001500E010E06E010894C11CD11C5E
:1026200041E0A42EB12CE02EF02E0F5F1F4FC80109
:10263000B6010E947B221816190624F48E2DB601CD
:102640000E94391EC50102C0880F991FFA94E2F753
:102650002091A0023091A10282239323892B21F0A3
:102660008E2D61E00E946D1404301105E1F6C09AD0
:102670000DEE1CE00E941A0D0E948D100E94AD11FB
:102680000E949A140E945114982F8450823020F492
:1026900080911001846003C0809110018B7F809332
:1026A0001001892F8150833010F0963021F48091F1
:1026B0001001816003C0809110018E7F8093100112
:1026C0009091100180910F01981739F180911001BC
:1026D00080930F019091B002892F82608093B002A5
:1026E0008FB78F778FBF80910B01882381F4809102
:1026F0000B018823E1F7BA9AC2988091AD02897FD5
:102700008093AD0200930C0110930B0103C09660FF
:102710009093B0028FB780688FBF8091B00282FF24
:10272000A9CF8FB78F778FBF80910B018823A1F43A
:1027300080910B018823E1F7BA9AC2988091AD028B
:10274000897F8093AD0200930C0110930B0180915F
:10275000B0028B7F8093B0028FB780688FBF8ACF23
:1027600020E23DE004C0F9013197F1F701970097AD
:10277000D1F708952FE088E190E00FB6F894A8957E
:1027800081BD0FBE21BD0895A8950895E091F00484
:10279000F091F10494A1699FB0011124640F711D9F
:1027A00022A130E0A901649F9001659F300D749FC4
:1027B000300D1124280F311DC9010895E091F00456
:1027C000F091F104DF01A658BF4F9C91E90FF11D74
:1027D000E659FF4F80839F5F9C9380E0903109F022
:1027E00081E00895DC01E091F004F091F104E658F5
:1027F000FF4F8081EA57F040E80FF11DE659FF4F87
:1028000080818C93E091F004F091F104DF01A658EF
:10281000BF4F9C919F5F9C9320E0E558FF4F8081C4
:10282000981321E0822F08958093E80408958093FF
:10283000E9040895982F8091E404892782FF11C04C
:1028400092FF0FC01092EF041092E80481E0809391
:10285000E9041092EA048093E7041092EE041092C7
:10286000ED04292F2F732093E40493708CE7989F35
:10287000C00111248E509B4F9093F1048093F0047B
:1028800022952F70209521702093EC04089580915B
:10289000E80408958091E90408958091E5048F6328
:1028A00008958091EF0408958091E4048370089561
:1028B000833010F080E00895282F30E08CE790E01E
:1028C000289FF001299FF00D389FF00D1124EE5E36
:1028D000FA4F80818695817008958330A8F4282F5F
:1028E00030E08CE790E0289FF001299FF00D389FA1
:1028F000F00D1124EE5EFA4F90E0611191E0990F16
:1029000080818D7F892B80830895833010F080E053
:102910000895282F30E08CE790E0289FF001299F50
:10292000F00D389FF00D1124EE50FB4F83A1811163
:1029300081E00895089590E0A2EFB4E02CE730E044
:10294000A901849F9001859F300D949F300D112423
:10295000FD01E20FF31F81E081A710A69096A20F60
:10296000B31F8C918E7F8C9314A615A616A617A65E
:1029700011AA10AA13AA12AAE658FF4F11921082A8
:10298000EB57F04013A612A213A211A2089590E0F3
:10299000A2EFB4E02CE730E0A901849F9001859F6D
:1029A000300D949F300D1124FD01E20FF31F81E0E3
:1029B00081A710A69096A20FB31F8C918E7F8C9347
:1029C00014A615A616A617A611AA10AA13AA12AA2B
:1029D000E658FF4F11921082EB57F04013A608956E
:1029E0001092EF041092E80481E08093E9041092C1
:1029F000EA048093E7041092EE041092ED04089527
:102A0000CF93DF931092EF041092E80481E080935B
:102A1000E9041092EA048093E7041092EE04109205
:102A2000ED04CCE6D5E0A3E1B5E020E030E091E0B4
:102A30004CE750E018969C93189717961C9217979E
:102A4000249FF001259FF00D349FF00D1124EE5EC0
:102A5000FA4F80818E7F80831B961D921D921D925E
:102A60001C921E9750961C921E921F9752961C9273
:102A70001E925197188219821A961C921A971196D3
:102A80001C92119712961C9212971C922F5F3F4F27
:102A9000C458DF4FA458BF4F2430310559F684E0A5
:102AA0008093E4041092E50482EF94E09093F104A3
:102AB0008093F0041092EC04DF91CF910895A2E08E
:102AC000B0E0E5E6F5E10C944D3E042F10E0A801DE
:102AD0009E012F5F3F4F0E941738892B29F489816F
:102AE0009A818017910709F080E02296E4E00C9427
:102AF000693E0F931F93082FE091F004F091F104C9
:102B000081A1833009F44EC080A5882329F48091E7
:102B1000EC04882309F400E120A931A942A953A9B2
:102B2000C901800F911D8417950710F4102F05C05F
:102B3000142F121B80A1846080A31123A1F1CF0167
:102B4000E659FF4FBF01412F0E945F15882351F1C5
:102B5000402F411B8091F0049091F104A12FB0E02F
:102B6000A659BF4FA80FB91F582FFC0106C0E65940
:102B7000FF4F8D918083E956F0408E2F851B84177F
:102B8000B0F3E091F004F091F104E658FF4F419367
:102B90004083EB57F04080A991A9810F911D91AB23
:102BA00080AB01C010E0812F1F910F910895A3E227
:102BB000B0E0EDEDF5E10C94493E40911101242F78
:102BC00037E0E32FF0E0E853FF4F822F6AE00E94E6
:102BD000113E905D90833150822F0E94113E282F2C
:102BE000882379F719824F5F409311018E010C5FA2
:102BF0001F4FC80168EC70E04AE00E94803C82E010
:102C0000C82ED12CCC0EDD1EC80162EF74E040EF5F
:102C100051E096010E9417388DEE8983C8017E012C
:102C20000894E11CF11CB70141E050E096010E94BC
:102C30001738C801B70141E050E096010E941738EB
:102C4000C801B70141E050E096010E941738C80161
:102C5000B70141E050E096010E941738C80164EEC8
:102C600074E04CE050E096010E941738C8010E94C1
:102C7000723CA396E8E00C94653E0F931F93CF93AC
:102C8000DF9390E02CE730E0829F8001839F100D5E
:102C9000929F100D1124E801CE50DB4F89A18823AB
:102CA00001F1CE010E94723C81E089A718A6F801CB
:102CB000EE5EFA4F80818E7F80831CA61DA61EA625
:102CC0001FA619AA18AA1BAA1AAAFE01E658FF4FA6
:102CD0001082FE01E558FF4F10821BA61AA21BA20C
:102CE00019A2DF91CF911F910F910895A1E0B0E05B
:102CF000ECE7F6E10C944F3E8983E091F004F0910B
:102D0000F10481A1823021F522A582A1281701F1C9
:102D100040AD51AD4C5F5F4F30E02F5F3F4FC90179
:102D200063E0880F991F6A95E1F7821B930B480FA8
:102D3000591F60E070E0CF010E94852F8091F00460
:102D40009091F104BE016F5F7F4F41E00E945F15DB
:102D50002196E2E00C946B3EA2E0B0E0E2EBF6E1FB
:102D60000C944D3E042F10E0A8019E012F5F3F4FB1
:102D70000E94CF36892B29F489819A818017910787
:102D800009F080E02296E4E00C94693EA0E0B0E017
:102D9000ECECF6E10C94463E682FC091F004D09123
:102DA000F10488A5882329F48091EC04882309F490
:102DB00060E128A939A94AA95BA9C901860F911D1B
:102DC0008417950710F4962E05C0942E921A88A1A8
:102DD000846088A3992009F4E5C06DA17EA128A98B
:102DE00039A94AA95BA989A1833009F0BAC088A58D
:102DF000882309F096C08091EC04882309F091C0E3
:102E00008901060F171F041B150B89A5893099F43A
:102E1000003E110508F47AC0AE0146595F4F980193
:102E2000265A30402C0F3D1FCA01B901492D50E0F0
:102E30000E94C43DA9C0893008F068C0E82EEA9419
:102E4000C80154E0969587955A95E1F75E2D529505
:102E5000507F580FC958DF4FA880C757D040252F43
:102E600030E088AD99AD2817390708F04FC04EE023
:102E7000549FA0011124475F5F4F662757FD60955F
:102E8000762FCE010E94852F6091F0047091F1049D
:102E9000CB0166597F4F4EE00E94AC16882309F49F
:102EA00071C0E091F004F091F1040115110589F071
:102EB000E858FF4F8191282F30E02A0D311D808185
:102EC00090E044E0880F991F4A95E1F7280F391FD9
:102ED0000DC0E294BFE0EB228E2D90E0880F991F89
:102EE000E80FF91FE65AFF4F20813181E091F0048D
:102EF000F091F104E858FF4F822F8F70819374E0B6
:102F0000369527957A95E1F720833EC09E01265994
:102F10003F4FC90160E070E0492D50E00E94CD3D77
:102F200033C05901CC24DD24ECA8FDA800E010E05A
:102F30008CA59DA5AEA5BFA5E81AF90A0A0B1B0B27
:102F400080E090E02EA93FA940E050E00E94F23DD1
:102F5000E60EF71E081F191FEA14FB040C051D05D9
:102F6000A8F2CE01C659DF4FBE01492D0E94AC1612
:102F7000882351F4E091F004F091F10480A1846081
:102F800080A313A699240EC0E091F004F091F104FF
:102F900080A991A9890D911D91AB80ABE558FF4F98
:102FA00090821292892DCDB7DEB7EBE00C94623E91
:102FB000A4E0B0E0EEEDF7E10C944D3E8B01BE01D4
:102FC0006F5F7F4F44E00E94AC16882369F12C812B
:102FD00030E040E050E0522F4427332722278B81F6
:102FE00090E0A0E0B0E0DC0199278827282B392B5E
:102FF0004A2B5B2B898190E0A0E0B0E0282B392B95
:103000004A2B5B2B8A8190E0A0E0B0E0BA2FA92F79
:10301000982F8827282B392B4A2B5B2BF8012083EC
:1030200031834283538384E02496E4E00C94693E28
:10303000A2E0B0E0EEE1F8E10C944D3E8B01BE0160
:103040006F5F7F4F42E00E94AC16882351F09A8157
:1030500080E0298130E0822B932BF80191838083DB
:1030600082E02296E4E00C94693E41E00E94AC16B6
:1030700008958F929F92AF92BF92CF92DF92FF926C
:103080000F931F93DF93CF9300D0CDB7DEB7E091BE
:10309000F004F091F10440AD51AD60E070E0CF017B
:1030A0000E94852F6091F0047091F104CB01645D62
:1030B0007F4F0E94D817FF244E010894811C911C59
:1030C00012E0A12EB12CAC0EBD1EB3E0CB2ED12C44
:1030D00054C00F2D10E040AD51AD4E5F5F4F9801D1
:1030E0002F5F3F4FC901A3E0880F991FAA95E1F711
:1030F000821B930B480F591F60E070E0CF010E94C4
:10310000852F8091F0049091F104B4010E9435184C
:103110008823E9F18091F0049091F104B5010E94B7
:1031200035188823A1F1E091F004F091F1040E0F1D
:103130001F1F8981D801DA968C938F2D86958695ED
:103140004F2D4370440FE80FF11DE65AFF4F9601D3
:10315000042E02C0220F331F0A94E2F720958081CB
:1031600028238A8190E08370907002C0880F991F95
:103170004A95E2F7282B2083F394E091F004F09134
:10318000F10482A1F81608F4A4CF81E001C080E028
:103190000F900F90CF91DF911F910F91FF90DF90D3
:1031A000CF90BF90AF909F908F900895A1E0B0E036
:1031B000ECEDF8E10C94413E0091F0041091F10423
:1031C000F80191A1992309F4DEC020A583A1281755
:1031D00028F0913009F4D7C012A2D5C0933009F07D
:1031E00051C08091EC04482E552466247724F801C0
:1031F00082A1C82EDD24EE24FF2464A170E080E0CB
:1032000090E030E040E050E00E94F23D640D751D1A
:10321000861D971DA70196010E94F23D4B015C019E
:10322000F80186A997A9A0E0B0E088169906AA0639
:10323000BB0608F0A8C0C701B601A30192010E9415
:10324000F23D9B01AC01C501B401621B730B840B01
:10325000950B6C197D098E099F09F80125A136A1EE
:1032600040E050E00E94F23DF80124A935A940E079
:1032700050E0260F371F481F591F24A735A746A720
:1032800057A77FC09130F1F4F80162A170E080E0AF
:1032900090E030E040E050E00E94F23DF80125A1CE
:1032A00036A140E050E00E94F23DF80124A130E058
:1032B00040E050E00E94F23DF80164A775A786A7A0
:1032C00097A75FC0923009F05CC0F80106A917A962
:1032D000EE246E010894C11CD11C36C00A5F1F4F3A
:1032E000A80160E070E006501040CF010E94852FD9
:1032F0008091F0049091F104B6010E943518882362
:1033000009F441C0E091F004F091F10480A5E816C1
:1033100021F48091EC04F816D9F1298130E02F5F77
:103320003F4FC90143E0880F991F4A95E1F7821B7F
:10333000930B080F191FF394E091F004F091F1043E
:1033400084A1F81658F2E394E091F004F091F104AE
:1033500083A1E816C0F4FF24EFCFE091F004F091D0
:10336000F10424A935A940E050E084A595A5A6A5BF
:10337000B7A5820F931FA41FB51F84A795A7A6A763
:10338000B7A781E001C080E02196E0E10C945D3EAA
:1033900011AF00AF898182A30E9439188823E9F612
:1033A000F2CFA4E0B0E0E7EDF9E10C94493EE82E5D
:1033B000A091F004B091F10491968C91919788239B
:1033C00009F40CC1813011F08330C1F592969C91C3
:1033D00092979E1508F402C1EE2009F4FFC06623FF
:1033E00029F08091EC04481709F0F8C08091EC04B2
:1033F000989FC001112401978E0D911D95962D91D6
:103400003C919697AC01429FC001439F900D529F03
:10341000900D1124D1969C938E93D0979996EC920F
:10342000999781E090E097960C90979702C0880F4B
:10343000991F0A94E2F79B968C93AFC0823009F0F3
:10344000ACC0E7FC07C092969C919297FD01FA965A
:10345000FF240CC07FE7F72EFE20FD01EF0DF11DCC
:10346000E2AC06C081918E1519F0F394F916D0F3F1
:1034700092968C919297F81609F4B0C0CF2CDD2467
:10348000C60101968C0163E0000F111F6A95E1F7F8
:10349000081B190BD8964D915C91D997400F511F7D
:1034A00060E070E0CD010E94852F8091F004909142
:1034B000F104BE016D5F7F4F42E00E94AC1688238D
:1034C00009F48CC02B8130E08091E804992787FDB6
:1034D00090952817390709F081C09C818091EC04F0
:1034E000981709F07BC0E091F004F091F10440AD31
:1034F00051AD4C5F5F4F400F511F60E070E0CF0156
:103500000E94852F6091F0047091F104CB01655DFC
:103510007F4F0E943518882309F460C08091F00421
:103520009091F104BE016F5F7F4F0E9418188823AD
:1035300009F454C0A091F004B091F1049A96FC9261
:103540009A97F694F694FD01EF0DF11DE65AFF4FA0
:10355000208130E053E0C522DD24CC0CDD1C0C2C96
:1035600002C0359527950A94E2F7237097962C931D
:10357000979780E890E002C0880F991F2A95E2F79C
:1035800096969C938E9395979996EC9299978981AC
:103590009A81D1969C938E93D097E091F004F0910C
:1035A000F104E658FF4F11921082EB57F04085A1CD
:1035B00096A140A951A9840F951F93AB82AB60E0FF
:1035C00070E084A595A5A6A5B7A5480F591F6A1F49
:1035D0007B1FCF010E94852F81E001C080E02496EF
:1035E000E8E00C94653EE091F004F091F10481A1D3
:1035F0008823A1F1813011F0833099F491A582A143
:10360000981719F481E081A702C0892F8F5F60E0CD
:1036100040E00E94D119E091F004F091F10481A5FD
:1036200008958230D9F442A582A14817B9F0242F19
:1036300030E090E001972817390739F480E860E01E
:1036400040E00E94D11981E008954F5F842F806887
:1036500060E040E00E94D11982E0089580E0089582
:103660000E94F31A813011F492E001C090E0E091E1
:10367000F004F091F10480A5882309F49460892F67
:1036800008958091E5048F778093E5048091EF049D
:103690008823C1F4E091F004F091F10481A1882322
:1036A00089F082A1882371F08091E40483FF0AC02D
:1036B0008091E60487FD06C00E94301B9091EA04C9
:1036C000982B02C09091EA04892F0895FF920F93DE
:1036D0001F93CF93DF938091EF04813019F08330F3
:1036E00041F591C01091E604E091F004F091F104ED
:1036F000DF01A558BF4FE658FF4F90818C91981776
:10370000D9F480E160E00E94C6168823A9F480E81D
:103710008093E5048091EA048C7F88618093EA04B9
:103720001092EF04E091F004F091F10480A18E7FFB
:1037300080A3FF24FA94DCC0C091F004D091F1047E
:10374000DE01A658BF4F8C91FE01E80FF11DE6592E
:10375000FF4FF0808F5F8C93C558DF4F9881CB5718
:10376000D040891709F0C4C088A182FFC1C0012FD1
:1037700000718BA590E00FA002C0959587950A94E3
:10378000E2F7182F109511700E94F31A8823C1F4E4
:103790000023D1F080E88093E5049091EA049C7FB7
:1037A0009093EA041092EF04E091F004F091F10498
:1037B00080A18E7F80A3112309F49AC0986119C05B
:1037C000002311F08130C1F480E88093E5049091EA
:1037D000EA049C7F9093EA041092EF04E091F004D5
:1037E000F091F10480A18E7F80A3112309F480C0A1
:1037F00098609093EA047CC0E091F004F091F104A9
:1038000080A18B7F74C0E091F004F091F104E65840
:10381000FF4F8081882309F041C00E947C24E09101
:10382000F004F091F10460A5E659FF4F60830E9417
:103830007F249C01E091F004F091F10481A1DF016B
:10384000A559BF4F813011F41C9203C08091EC0444
:103850008C93E559FF4FC90160810E947F24E0915C
:10386000F004F091F10461A5E459FF4F60830E94D8
:103870007F24E091F004F091F10467A1E359FF4F38
:1038800060830E947F24E091F004F091F104E259FA
:10389000FF4F919380833C9686E08083A091F00453
:1038A000B091F1049D0126583F4FF9019081FD012F
:1038B000E90FF11DE659FF4FF0809F5FF9019083FA
:1038C000A558BF4F8C91981799F480E88093E50430
:1038D0008091EA048C7F8093EA040E94301B10924E
:1038E000EF04E091F004F091F10480A18E7F80A3B9
:1038F0008F2DCDB7DEB7E5E00C94683E982F8F3161
:1039000019F40E94411B08958F3319F48091E80443
:1039100008958F3519F48091E90408958F3721F0C7
:103920008FEF97FF2DC007C00E94661B1092EE0418
:103930001092ED0408958091ED049091EE0480348E
:103940009105B0F08091E50487FD0DC08091EF04F2
:10395000882349F080E88093E5048091EA048C7F15
:1039600084608093EA041092EE041092ED0405C086
:1039700001969093EE048093ED048091E5048F63AB
:1039800008951F93982F8093EB048091EF04843067
:1039900009F05AC01091E604E091F004F091F104AE
:1039A000DF01A658BF4F8C91E80FF11DE659FF4F7C
:1039B00090838F5F8C93803109F046C060E00E9455
:1039C0007915E091F004F091F104882361F480E826
:1039D0008093E5048091EA048C7F80628093EA04FE
:1039E0001092EF042EC080A182FF2EC0107181E0E2
:1039F00090E007A002C0880F991F0A94E2F70E9486
:103A000076160E94F31A882351F4112361F080E89E
:103A10008093E5048091EA048C7F80610AC01123C1
:103A200011F0813089F480E88093E5048091EA0404
:103A30008C7F8093EA041092EF04E091F004F091FF
:103A4000F10480A18E7F80A31F9108951F93282FDA
:103A5000482F50E0CA01807F9070803D910531F47D
:103A60002093E6041092EF0480E8DFC09091E50413
:103A700096FDDDC02093E604E091F004F091F1049E
:103A800081A1882339F480E88093EA0490689093B8
:103A9000E504CDC01092EA04322F307F832F829547
:103AA00086958695837090E08230910509F462C016
:103AB0008330910524F0039709F0B4C08BC03031F6
:103AC00029F48091EB048093E80420C026FF07C00E
:103AD00025FF02C08FEF01C081E08093E704CA0197
:103AE00080769070892BA1F044FF07C08091E70495
:103AF0009091E804890F8093E8049091E7049F3F38
:103B000019F480A5882321F080A5890F80A703C020
:103B10001092E80410A68091E804882319F484E048
:103B20008093EA044C70507080A1452B41F0816075
:103B300080A38091EA0480628093EA0402C08E7FB1
:103B400080A380E00E94D618882349F48091E6047F
:103B500082FF05C08091EA0480618093EA04E091CD
:103B6000F004F091F10480A181FF5CC08091EA042F
:103B7000806456C0122F107225FF05C080A181FFFE
:103B800002C080E44DC08091E90456954795642FAA
:103B900061705695479556954795409541708F773A
:103BA0000E94D1198823C9F1E091F004F091F10449
:103BB00080A1816080A3112311F481E001C084E021
:103BC0008093EF0480A18B7F80A31092EE0410926B
:103BD000ED041AC025FF02C084E022C081A58F77C2
:103BE00060E040E00E94D1198823B9F083E080931F
:103BF000EF041092EE041092ED04E091F004F091C5
:103C0000F10480A1816080A380E48093E504809129
:103C1000EA0483608093EA040AC08091EA04806128
:103C20008093EA048091E50480688093E5041F9105
:103C300008958F3121F4862F0E94261D08958F3319
:103C400019F46093E80408958F3519F46093E9043A
:103C500008958F3741F4862F0E94C11C1092EE0404
:103C60001092ED04089587FF03C0862F0E941A1456
:103C70000895A3E6B0E0EFE3FEE10C943F3EA49686
:103C80008FAFA4973B011982CB016EE270E00E94D6
:103C9000D43D4C01009709F405C3A82FB92FFD01AD
:103CA00001900020E9F73197EA1BFB0B359708F0EC
:103CB000F9C28C010F5F1F4FC8016FE872E00E94CC
:103CC000A43D892B19F480E090E015C0C80164E997
:103CD00072E00E94A43D892B19F481E090E00BC0B2
:103CE000C80169E972E00E94A43D892B11F0FF240C
:103CF0000CC082E090E0FC01EE0FFF1FEE0FFF1FF3
:103D0000E80FF91FE257FD4FF4908F2D90E08F7769
:103D10009070892B09F4C6C2C301BE01645D7F4F58
:103D20000E946D34892B09F0C0C2F7FC02C043E049
:103D300001C041E08E010E5B1F4FC801B3010E941C
:103D4000803C892B09F0B1C24F2D4F77A3964FAF1E
:103D5000A397433009F000C1F4E1EF2EF12CEC0EF3
:103D6000FD1EC801B70148E00E94AC16882309F483
:103D700084C1C7016FEB70E048E050E00E94B73D9E
:103D8000009709F07AC1C801BE016E5F7F4F0E94A3
:103D90003518882309F471C18A81813808F06DC112
:103DA000EE24FF24E0E1AE2EB12C76E1C72ED12C1B
:103DB000C801102F092F63E0262E312C2C0E3D1E3A
:103DC0002E010894411C511C2AC0A60160E070E03D
:103DD000812F902F0E94852F812F902FB1010E945B
:103DE0003518882309F47FC1C7018F709070892B23
:103DF00061F4F70154E0F695E7955A95E1F7EE0F77
:103E0000FF1FE40DF51DB48EA38E8B81A80EB11C8F
:103E10000894E11CF11C8EE090E0C80ED91E8A8146
:103E200090E0E816F90688F291E0A9169AE0B90642
:103E300008F0ABC18401061917090930110510F00B
:103E400008E010E0A496EFADA4978E2E99248CE79D
:103E500090E0889E7001899EF00C989EF00C1124D1
:103E60004CE255E0E40EF51EC7016EE672E040E25A
:103E700050E00E949B3D6301C00ED11E0B5E1F4FA0
:103E80000E0D1F1D0EC0F6018081992787FD9095AC
:103E90000E947C3EF80180830894C108D10801503B
:103EA00010408C2D861987FFEECFDE015C968CE7E3
:103EB00090E0889EF001899EF00D989EF00D1124EF
:103EC000E45BFA4F9E01245D3F4F8D919D9181935C
:103ED0009193A217B307C9F72A2D8A2D8F70F70186
:103EE0008183C50134E0969587953A95E1F7828301
:103EF00086E183833A8134832195258380E094E1B0
:103F00008A199B09968320E1278382E090E09F83B2
:103F10008E8380E590E09D838C838CE790E0889E83
:103F2000F001899EF00D989EF00D1124EE50FB4F8C
:103F300022A321E027A380E091E096A385A3B7AA5E
:103F4000A6AA8EE0389FC0011124099695AB84ABD8
:103F500030AF11AE298358C1A396FFADA397F130BE
:103F600009F068C0C80143EE58E060E070E00E94CC
:103F7000852F892B09F081C0C801BE01615F7F4F89
:103F800045E00E94AC16882309F477C08F859B8991
:103F9000992371F0882361F0903121F4863110F07B
:103FA0008A3130F0CE018E5B9F4F0E94723C7AC105
:103FB00083FD03C022E030E002C021E030E080FD5C
:103FC00003C080E590E002C088E290E03F832E834A
:103FD0009D838C83A4964FADA497242F30E08CE76B
:103FE00090E0289FD001299FB00D389FB00D11247B
:103FF000FD01EE50FB4F91E091A710A6AE5EBA4FC7
:104000008C918E7F8C9314A615A616A617A611AABE
:1040100010AA13AA12AAE658FF4F11921082EB576A
:10402000F04013A680E182A397A380E091E096A3DD
:1040300085A3EAC0A3965FADA397523009F0E4C010
:10404000C801BE01645F7F4F43E00E94AC16882325
:10405000A1F08C85863409F098C08D85843409F0F0
:1040600094C08E85893409F090C0C801BE016F5F8D
:104070007F4F0E943518882311F4C80189C0C801F8
:10408000BE016C5F7F4F0E9418189801102F032FFC
:10409000882349F1812F932FBE016A5F7F4F0E94D1
:1040A0001818882309F471C08E819F81039708F046
:1040B0006CC0812F902F4AE050E060E070E00E94D9
:1040C000852F812F902FBE01685F7F4F0E941818A7
:1040D000882349F0812F902FBE01665F7F4F0E9499
:1040E0001818882319F4812F902F52C00A851B8538
:1040F000025F1F4FCC24DD24EE24FF2482E4A82E8F
:10410000B12CAC0EBD1EB3E08B2E912C8C0E9D1EDF
:1041100029C00A5F1F4FA80160E070E00650104000
:10412000C5010E94852FC501B4010E94351888235E
:1041300011F4C5012DC02B81822F90E0E816F906FD
:1041400008F47C0130E02F5F3F4FC901A3E0880FE6
:10415000991FAA95E1F7821B930B080F191F08946A
:10416000C11CD11C8E819F812C813D81FC01E29F6D
:10417000C001E39F900DF29F900D1124C816D9063F
:1041800040F2F1E2EF16F10430F0CE018E5B9F4F6A
:104190000E94723C8AC0A4964FADA497242F30E0B1
:1041A0008CE790E0289FD001299FB00D389FB00D7B
:1041B0001124FD01EE50FB4F81E081A710A6AE5EF9
:1041C000BA4F8C918E7F8C9314A615A616A617A6AF
:1041D00011AA10AA13AA12AAE658FF4F1192108230
:1041E000EB57F04013A68885998595AB84AB8A85FB
:1041F0009B850E9697AB86AB91AF80AF12A690E0F1
:104200008981811191E09983A4965FADA497052FD0
:1042100010E08CE790E0089FF001099FF00D189FD7
:10422000F00D1124EE50FB4F81A1882319F0CF012E
:104230000E94723C8CE790E0089FF001099FF00D0E
:10424000189FF00D1124EE50FB4FDE01AE5BBF4F07
:1042500080E20D9001928150E1F78CA980FF02C0AD
:1042600081E089838CE790E0089FF001099FF00DC1
:10427000189FF00D1124DF01AE5EBA4F9981917045
:10428000990F8C918D7F892B8C93EE50FB4FA396C9
:104290008FADA39781A38E8184A38C8183A320E01B
:1042A00030E005C021E030E002C022E030E0C9018A
:1042B000CD59DF4FE2E10C945B3EFB01DA011C9229
:1042C00082309105C9F0833091052CF4009771F08C
:1042D000019749F40EC084309105C1F084309105F6
:1042E00074F00597B1F020E030E01BC0118210821D
:1042F0000AC080E490E005C080E890E002C080EC55
:1043000090E0918380832EE330E00BC080E091E069
:10431000F8CF80E491E09183808381E08C9322E068
:1043200030E0C90108952F923F924F925F926F92B1
:104330007F928F929F92BF92CF92DF92EF92FF92E5
:104340000F931F93DF93CF93CDB7DEB7EE970FB6E2
:10435000F894DEBF0FBECDBF85ED90E0BE01675F74
:104360007F4F0E946D34892B09F0AAC089859A85F8
:10437000AB85BC8584549140A040B04008F4A0C0F7
:104380008E01015E1F4FC80165ED70E041E00E94A3
:10439000803C892B09F094C0CC24DD24C801F92E7F
:1043A00027E0622E712C6C0E7D1E94E0292E312C9C
:1043B0002C0E3D1E82E0482E512C4C0E5D1EC60177
:1043C000BE016B5F7F4FAE014D5F5F4F0E945D216D
:1043D0004C014D815E8160E070E0802F9F2D0E9436
:1043E000852F802F9F2DBE016F5F7F4F41E050E0F2
:1043F00093010E94CF36892B09F047C08F819885A1
:10440000019709F042C0898190E0881699060CF462
:1044100043C00E947C2469810E947F24B82EE92E2B
:1044200010E016C0802F9F2DB10141E050E09301B4
:104430000E94CF36892B49F58F819885019729F500
:104440008B2D9E2D6C810E947F24B82EE92E1F5F3C
:104450008981181738F34D815E814F5F5F4F480D9A
:10446000591D60E070E0802F9F2D0E94852F802FC6
:104470009F2DB20141E050E093010E94CF36892B7D
:1044800021F48F819885019719F0CE014F9606C0CF
:10449000EB248A81E81629F0802F9F2D0E94723C20
:1044A0000FC00894C11CD11C86E0C816D10409F0C5
:1044B00086CF802F9F2D0E94723C21E030E002C009
:1044C00020E030E0C901EE960FB6F894DEBF0FBED3
:1044D000CDBFCF91DF911F910F91FF90EF90DF90B3
:1044E000CF90BF909F908F907F906F905F904F90F4
:1044F0003F902F900895A7E2B0E0E1E8F2E20C943B
:10450000473E5B01BE016C5F7F4FAE014D5F5F4F69
:104510000E945D216C01009719F42FEF3FEF90C0CE
:104520008E01085F1F4FC80165ED70E041E00E94F9
:10453000803C892BF9F44C815D8160E070E0C8011A
:104540000E94852F36E0E32EF12CEC0EFD1EC801F3
:10455000BE016F5F7F4F41E050E097010E94CF3670
:10456000892B21F48E819F81019739F0CE01089625
:104570000E94723C2CEF3FEF63C04981842F90E092
:10458000C816D90614F4C801F3CF442379F0C80142
:10459000B50150E097010E94CF36892B39F7898108
:1045A00090E02E813F812817390701F70E947C2473
:1045B00069810E947F247C0110E009C0F501E10FB0
:1045C000F11DC70160810E947F247C011F5F8981EA
:1045D0001817A0F38E01085F1F4F4C815D814F5F5C
:1045E0005F4F4C0D5D1D60E070E0C8010E94852F9B
:1045F000C801BE016E5F7F4F41E050E09E012A5F1F
:104600003F4F0E94CF36892B09F0B0CF8E819F811A
:10461000019709F0ABCFC8010E94723CFE248A8149
:10462000F81619F02DEF3FEF0BC08B81882329F48A
:104630008981A80EB11CF50110828981282F30E0F4
:10464000C901A796EAE00C94633E2F923F925F92D5
:104650006F927F928F929F92AF92BF92CF92DF9292
:10466000EF92FF920F931F93DF93CF93CDB7DEB7F7
:10467000A6970FB6F894DEBF0FBECDBF8E01095FBF
:104680001F4FC80165ED70E04AE00E94803C892B15
:1046900091F5EE24FF2452E0252E312C2C0E3D1EE8
:1046A000C801D02EC92E45E0842E912C8C0E9D1E63
:1046B0005E010894A11CB11CC701BE016D5F7F4F54
:1046C000A1010E945D213C0119828D2D9C2DB50117
:1046D00041E050E094010E941738892B21F48D812C
:1046E0009E81019759F0CE0107960E94723C85ED9C
:1046F00090E00E94913B20E030E03BC00E947C248F
:1047000069810E947F24582E092F10E00FC08D2D43
:104710009C2DB50141E050E094010E941738892B8F
:1047200011F78D819E810197F1F61F5F812F90E037
:104730008615970564F3052509838D2D9C2DB501FC
:1047400041E050E094010E941738892B61F68D8179
:104750009E81019741F60894E11CF11C86E0E81661
:10476000F10409F0A9CF8D2D9C2D0E94723C21E00F
:1047700030E0C901A6960FB6F894DEBF0FBECDBFDC
:10478000CF91DF911F910F91FF90EF90DF90CF902D
:10479000BF90AF909F908F907F906F905F903F9071
:1047A0002F900895A7E2B0E0E8EDF3E20C94453EC7
:1047B0007B01BE016C5F7F4FAE014E5F5F4F0E9479
:1047C0005D216C01009719F42FEF3FEF90C08A81B3
:1047D000882349F4F70101900020E9F73197EE1999
:1047E000FF09E98301C0C982898190E0C816D90612
:1047F0001CF42EEF3FEF7BC0CE01089665ED70E014
:1048000042E00E94803C892BB1F50E947C246981A2
:104810000E947F245C0110E009C0F701E10FF11D47
:10482000C50160810E947F245C011F5F8981181788
:10483000A0F38E01085F1F4F4C815D8160E070E046
:10484000C8010E94852F66E0862E912C8C0E9D1E3D
:10485000C801BE016F5F7F4F41E050E094010E94AC
:104860001738892B21F48E819F81019739F0CE0171
:1048700008960E94723C2CEF3FEF39C049814423D7
:1048800079F0C801B70150E094010E941738892BD4
:1048900071F7898190E02E813F812817390739F718
:1048A0008E01085F1F4F4C815D814F5F5F4F4C0D44
:1048B0005D1D60E070E0C8010E94852FBA24BB82B4
:1048C000C801BE016D5F7F4F41E050E09E012A5F4D
:1048D0003F4F0E941738892B51F68E819F81019797
:1048E00031F6C8010E94723C8981282F30E0C9014D
:1048F000A796ECE00C94613E8FEF9FEF0895E62FB2
:10490000F0E0292F30E0E227F327F070EE0FFF1FD1
:10491000E356FD4F45915491382F20E0422753270D
:10492000CA010895FC018AE0809313019FEF9FB9AB
:10493000779BFECF8FB18F3F29F48091130188239D
:10494000B1F729C08E3F39F59FEF9FB9779BFECF16
:104950008FB180839FB9779BFECF8FB181839FB941
:10496000779BFECF8FB182839FB9779BFECF8FB1AC
:1049700083836450704011F03496E7CF8FEF8FB986
:10498000779BFECF8FB18FEF8FB9779BFECF8FB123
:1049900021E030E002C020E030E0C9010895FC01D0
:1049A00082E3809314018FEF8FB9779BFECF8FB195
:1049B0009FEF9FB9779BFECF8FB18F3F39F08091EA
:1049C00014018823B1F720E030E02BC06FB9779B4A
:1049D000FECF6D3F19F421E030E023C090E08081EC
:1049E0008FB9779BFECF81818FB9779BFECF915096
:1049F00011F03296F4CF8FEF8FB9779BFECF8FEF08
:104A00008FB9779BFECF8FEF8FB9779BFECF8FB19A
:104A100090E08F71853009F091E081E09827292F8F
:104A200030E0C9010895A2E0B0E0E9E1F5E20C94BC
:104A30004A3ED82E7A018B0187FF0CC087E740E001
:104A400050E060E070E00E941325823008F06BC0F7
:104A50008FE7D822C4981A82198205C089819A8169
:104A600001969A83898389819A818097BCF3C49A3D
:104A70001A82198205C089819A8101969A83898355
:104A800089819A818097BCF382E3809314018FEF30
:104A90008FB9779BFECF8FB19FEF9FB9779BFECFEA
:104AA0008FB18F3F31F0809114018823B1F78FEFE0
:104AB0003AC0DFB8779BFECF812F9927AA27BB2763
:104AC0008FB9779BFECFC801AA27BB278FB9779BE9
:104AD000FECFBB27A12F902F8F2D8FB9779BFECFB5
:104AE000EFB8779BFECF80E4D81611F485E906C0B5
:104AF00088E4D81611F487E801C081E08FB9779B6C
:104B0000FECF8CE4D81629F48FEF8FB9779BFECFB8
:104B10008FB19AE02FEF2FB9779BFECF8FB187FF30
:104B200002C09150C1F72296E7E00C94663EA6E0E1
:104B3000B0E0EDE9F5E20C944B3E882311F081E002
:104B4000BEC08091E10081FDB8C091E09093120158
:104B500080E58DB99EB98AE09FEF9FB9779BFECF24
:104B60002FB18150D1F780E440E050E060E070E088
:104B70000E941325813009F07DC084E680931301E3
:104B800088E44AEA51E060E070E00E941325813039
:104B900009F049C033E0E32EF12CEC0EFD1E870135
:104BA0009FEF9E01295F3F4F9FB9779BFECF8FB14B
:104BB000F80181938F01E217F307B1F78D818130FE
:104BC00009F058C08E818A3A09F054C080911301CF
:104BD000882349F089EE40E050E060E070E40E94F4
:104BE0001325882399F780911301882309F442C083
:104BF0008AE740E050E060E070E00E9413258823DF
:104C0000C9F59FEF9FB9779BFECF8FB1F7018193D5
:104C10007F01E017F107B1F78B8186FD02C014E038
:104C20002AC01CE028C089EE40E050E060E070E05F
:104C30000E941325823018F001E411E002C009EE51
:104C400012E080911301882349F0802F40E050E06A
:104C500060E070E00E941325882399F7809113018A
:104C6000882341F080E540E052E060E070E00E947F
:104C70001325811110E010931501C4981A8219822E
:104C800005C089819A8101969A83898389819A8155
:104C90008097BCF38FEF8FB9779BFECF8FB1112335
:104CA00021F08091E1008E7F06C0109212011DB8A4
:104CB0008091E10081608093E1008091E10026967F
:104CC000E6E00C94673E882311F081E0089580911E
:104CD000E1000895EF92FF920F93DF93CF9300D0FE
:104CE000CDB7DEB77B01882309F05DC0002309F44E
:104CF0005AC08091E10080FF03C023E030E055C03E
:104D00008091150183FD07C069E0220F331F441F06
:104D1000551F6A95D1F7013089F481E5BA01A901DF
:104D20000E941325882331F5C70160E072E00E94DC
:104D3000922400E0892BF1F401E01CC082E5BA0165
:104D4000A9010E9413258823A9F4C70160E072E03D
:104D50000E949224892B39F0015029F080E092E0E2
:104D6000E80EF91EF2CF8CE440E050E060E070E025
:104D70000E941325C4981A82198205C089819A81DC
:104D800001969A83898389819A818097BCF38FEFFA
:104D90008FB9779BFECF8FB120E030E0002329F060
:104DA00021E030E002C024E030E0C9010F900F9014
:104DB000CF91DF910F91FF90EF900895AF92BF9246
:104DC000CF92DF92EF92FF920F93DF93CF9300D0B9
:104DD000CDB7DEB75B0169017A01882309F06CC0A9
:104DE000002309F469C08091E10080FF03C023E043
:104DF00030E064C08091E10082FF03C022E030E037
:104E00005DC08091150190E083FD07C079E0CC0C76
:104E1000DD1CEE1CFF1C7A95D1F7013069F488E5A2
:104E2000B701A6010E941325882369F5C5016EEF1D
:104E30000E94CF2400E024C086709070892B39F046
:104E4000402F50E060E070E087ED0E94132589E577
:104E5000B701A6010E9413258823A9F4C5016CEFB0
:104E60000E94CF24892B39F0015029F080E092E094
:104E7000A80EB91EF3CF80E090E06DEF0E94CF2422
:104E8000892B09F401E0C4981A82198205C089812E
:104E90009A8101969A83898389819A818097BCF34C
:104EA0008FEF8FB9779BFECF8FB120E030E00023EA
:104EB00029F021E030E002C024E030E0C9010F9089
:104EC0000F90CF91DF910F91FF90EF90DF90CF90F7
:104ED000BF90AF900895A2E1B0E0E1E7F7E20C9453
:104EE0004C3E8A01882309F0ADC1643021F5FA01F6
:104EF0009081913099F0913020F0923009F0A2C168
:104F000013C080911201882399F0109212011DB8EC
:104F10008091E10081608093E1000AC090931201CA
:104F200080E58DB99EB904C080911201FA01818398
:104F300020E030E089C18091E10080FF03C023E0E0
:104F400030E082C1E62FF0E0EF30F10520F4E35BC2
:104F5000FF4F0C94763E24E030E061C1C49A1A827F
:104F6000198205C089819A8101969A8389838981F2
:104F70009A818097BCF382E3809314018FEF8FB9FD
:104F8000779BFECF8FB19FEF9FB9779BFECF8FB1FD
:104F90008F3F09F43FC1809114018823A9F73DC1D7
:104FA00089E440E050E060E070E00E94132588232F
:104FB00009F033C1CE01039660E170E00E949224B3
:104FC000892B09F42AC18B818295869586958370F9
:104FD0007C854B85813089F4872F90E00196342FB2
:104FE00020E0820F931FA0E0B0E02AE0880F991F15
:104FF000AA1FBB1F2A95D1F7C3C042954695469577
:1050000043702A8530E0220F331F220F331F240FF5
:10501000311D2F5F3F4F898590E083709070982FEE
:105020008827990F990F280F391F40E050E0888595
:105030008F706D85661F6627661F860F8E5F737083
:10504000770F870F90E0099704C0220F331F441F8A
:10505000551F8A95D2F7F801208331834283538309
:10506000D9C080E092E0FA0191838083D3C080911F
:105070001501F82E82FF2FC08DEC40E050E060E07B
:1050800070E00E941325882309F0C7C08FEF8FB905
:10509000779BFECF8FB1CE01039660E170E00E9456
:1050A0009224892B09F4B9C080E39FEF9FB9779BC5
:1050B000FECF2FB18150D1F72D8522952F7080E141
:1050C00090E0A0E0B0E004C0880F991FAA1FBB1FAA
:1050D0002A95D2F755C089E440E050E060E070E0E6
:1050E0000E941325882309F098C0CE01039660E141
:1050F00070E00E949224892B09F48FC04D858E8523
:10510000F1FE1BC0881F8827881F90E00196242F7E
:1051100030E02F733070220F331F820F931F2889C6
:10512000229526952695237030E02150304002C00C
:10513000880F991F2A95E2F721C0282F30E02370AD
:105140003070F3E0220F331FFA95E1F782958695D0
:105150008770280F311D2F5F3F4F842F90E08C7791
:10516000907095958795959587950196AC01249FAC
:10517000C001259F900D349F900D1124A0E0B0E058
:10518000F80180839183A283B38344C08091150189
:10519000FA0180833FC089E401C08AE440E050E026
:1051A00060E070E00E9413258823B9F5C80160E132
:1051B00070E029C08AE740E050E060E070E00E94C3
:1051C0001325882351F5F8019FEF98012D5F3F4F7C
:1051D0009FB9779BFECF8FB18083E217F307D1F0A1
:1051E0003196F6CF8DEC40E050E060E070E00E9438
:1051F0001325882391F48FEF8FB9779BFECF8FB162
:10520000C80160E470E00E94922420E030E0892B25
:1052100031F403C020E030E002C021E030E0C49867
:105220001A82198205C089819A8101969A8389839D
:1052300089819A818097BCF38FEF8FB9779BFECFDE
:105240008FB102C024E030E0C9016296E5E00C9421
:10525000683E80911301882319F0815080931301D7
:1052600080911401882319F08150809314010895CE
:1052700060EA79E98DE99AE308950F931F93CF933C
:10528000DF93FC018B01EB01299686859785A08928
:10529000B1890097A105B10509F463C0228933895A
:1052A000D9011C969C9140E050E0692F70E0687035
:1052B0007070F901E40FF51FE081E03289F0E5300C
:1052C00009F4E5EE6115710529F08E2F81548A31BC
:1052D00008F4E05EE9934F5F5F4F4830510549F7AE
:1052E000F9018085803211F4FE011DC0FE018EE2BD
:1052F0008193D901492F50E040715070BE016C5F1D
:105300007F4F18969C911897903269F0411551057E
:1053100029F0892F81548A3108F4905E9193119677
:10532000E617F70771F7D9011B968C911B97E801D7
:1053300088875C968D919D910D90BC91A02D88835E
:105340009983AA83BB83D90158968D919C915997D3
:105350009D838C8356968D919C9157979F838E83C6
:10536000EF011882DF91CF911F910F910895DB011A
:10537000882319F02BE030E010C0E0911601F09185
:105380001701309709F01082109709F01C92B09322
:105390001701A093160120E030E0C9010895FC0137
:1053A000009799F08081882381F086819781861704
:1053B000970759F481810E94632680FD03C020E095
:1053C00030E005C023E030E002C029E030E0C90150
:1053D00008950F93CF93DF93EC019A01AB01BC01C9
:1053E000605D7F4F898101E00E946A26892B11F060
:1053F00023E037C0C25DDD4F88819981CE52D24013
:1054000085559A4A11F022E02CC0DE01AA59BF4FFF
:10541000E2EEF0E080E0E53EF80711F420E021C084
:105420009C918081981719F411963196F3CFDE0183
:10543000AE57BF4FE6EEF0E020E0EB3EF20749F05A
:105440009C918081981711F021E00BC01196319644
:10545000F3CF20E0C85ADF4F888187FF21E081E049
:105460002827822FDF91CF910F910895A0E0B0E01F
:10547000ECE3FAE20C94433EDC019B01142FED9126
:10548000FC911197908190539A3058F481818A331E
:1054900041F43296ED93FC93992319F02BE030E020
:1054A0007CC1C0911601D0911701F901D183C0834D
:1054B000209719F42CE030E070C18881882359F0DE
:1054C00089810E94632680FD06C0112309F460C112
:1054D00082FD5BC15DC11882198280E00E94972520
:1054E00080FF03C023E030E058C1112311F082FD9A
:1054F0004CC1CE0140E050E060E070E00E94E9293C
:10550000813021F066247724430110C0FE01E2516E
:10551000FE4F8481882309F43EC1608471848284B3
:105520009384CE01B401A3010E94E929833019F4C8
:1055300021E030E032C1882309F02DC18BAD9CAD54
:105540008050924009F027C1CA5BDF4F8881998162
:10555000C654D040BC0180E090E061157105810522
:10556000910541F4CC5ADF4F688179818A819B8112
:10557000C455D040688F798F8A8F9B8FC05CDF4F76
:105580002881C054D0402B8330E040E050E00E949E
:10559000F23D5B016C01FE01FE9680819181A0E0ED
:1055A000B0E0860D971DA81DB91D88A399A3AAA3D5
:1055B000BBA38DAD8A83CF5BDF4F28813981C15476
:1055C000D04039872887CD5BDF4F88819981C354CC
:1055D000D0407C0100E010E0E114F1040105110568
:1055E00041F4C05BDF4FE880F9800A811B81C05520
:1055F000D04080819181A0E0B0E0E81AF90A0A0B5E
:105600001B0BEA18FB080C091D0944E03695279589
:105610004A95E1F7C901A0E0B0E0E81AF90A0A0BDF
:105620001B0B2A8130E040E050E0C801B7010E9426
:105630001D3E2E5F3F4F4F4F5F4F2C8F3D8F4E8F44
:105640005F8F273F8FE0380780E0480780E05807EA
:1056500010F411E007C0275F3F4F4040504008F072
:10566000A2C012E088A199A1AAA1BBA18A0D9B1D8D
:10567000AC1DBD1D8CA39DA3AEA3BFA3888599853A
:1056800024E0969587952A95E1F7A0E0B0E028A15F
:1056900039A14AA15BA1820F931FA41FB51F8A0DD8
:1056A0009B1DAC1DBD1D88A799A7AAA7BBA78FEFFF
:1056B0009FEFAFEFBFEF888B998BAA8BBB8B1C82C0
:1056C000133009F051C0C05ADF4F28813981C056CC
:1056D000D04040E050E0260D371D481D591D2C8B51
:1056E0003D8B4E8B5F8B1A86BE01605D7F4F89813B
:1056F00001E00E946A26892BB9F5C25DDD4F8881E1
:105700009981CE52D24085559A4A71F588A999A9B6
:10571000AAA9BBA982559245A146B14429F5CC5E00
:10572000DD4F88819981AA81BB81C451D2408257C3
:105730009247A144B146C1F4C45EDD4F888199818E
:10574000AA81BB81CC51D2408C879D87AE87BF8711
:10575000C85EDD4F88819981AA81BB81C851D24042
:10576000888B998BAA8BBB8B1CA61DA61EA61FA679
:105770001883809118019091190101969093190155
:10578000809318019F838E8303C02AE030E005C018
:1057900020E030E002C02DE030E0C901CDB7DEB737
:1057A000EEE00C945F3EC45ADF4F88819981AA8154
:1057B000BB81CC55D0408CA39DA3AEA3BFA313E067
:1057C0005DCFA0E0B0E0E7EEFBE20C94433EEC01DD
:1057D0004A015B01CCA4DDA4EEA4FFA4C416D50647
:1057E000E606F70609F44FC08C818823A1F150E347
:1057F000652E712C6C0E7D1E8981B301A701960167
:1058000001E00E94DE26892BD9F51C82888D998DB6
:10581000AA8DBB8D28A139A14AA15BA1820F931F3C
:10582000A41FB51FC816D906EA06FB06A0F41B8103
:1058300010C0888D998DAA8DBB8DC80ED91EEA1E09
:10584000FB1E8981B301A701960101E00E94DE26BB
:105850001150123070F781149104A104B10499F031
:10586000BE01605D7F4F8981A501940101E00E9426
:105870006A26892B29F48CA69DA6AEA6BFA603C0D6
:1058800021E030E002C020E030E0C901CDB7DEB752
:10589000EEE00C945F3EA0E0B0E0E1E5FCE20C94A9
:1058A000443E4C017A018B0142305105610571057E
:1058B00008F499C0F401848D958DA68DB78D481795
:1058C00059076A077B0708F08EC0A0A0B1A0C2A04C
:1058D000D3A08081823009F44FC0833009F465C0C1
:1058E000813009F085C0EA01CC0FDD1FCE0DDF1D30
:1058F000D695C795AE01452F5527469560E070E0D7
:105900004A0D5B1D6C1D7D1DC4010E94E12B892B7E
:1059100009F06EC0FE01F170E80DF91D70A8219626
:10592000AE01452F5527469560E070E04A0D5B1D9E
:105930006C1D7D1DC4010E94E12B892B09F058C00C
:10594000672D70E0D170C80DD91D98A980E0682B33
:10595000792BC70181709070892B39F084E076959E
:1059600067958A95E1F79B011DC09B0140E050E0DF
:105970003F704070507040C0452F562F672F7727DB
:105980004A0D5B1D6C1D7D1DC4010E94E12B892BFE
:1059900079F5F701EE0FFF1FF170E80DF91D80A9F1
:1059A00091A99C0140E050E027C0E7E0769567951B
:1059B00057954795EA95D1F74A0D5B1D6C1D7D1DE6
:1059C000C4010E94E12B892B99F4F701EE0FFF1F10
:1059D000EE0FFF1FF170E80DF91D20A931A942A9B2
:1059E00053A95F7009C021E030E040E050E004C0FE
:1059F0002FEF3FEF4FEF5FEFB901CA01CDB7DEB731
:105A0000EDE00C94603EA0E0B0E0E9E0FDE20C9433
:105A1000473E5C01EB01DC0113967C936E93129779
:105A200016964D915D916D917C911997413051057C
:105A30006105710509F4C4C01496ED91FC911597A8
:105A4000848D958DA68DB78D481759076A077B07FA
:105A500008F0B6C04115510561057105E1F4808576
:105A60009185C817D90708F0ABC0CE01A4E0969580
:105A70008795AA95E1F7A0E0B0E024A135A146A161
:105A800057A1820F931FA41FB51FF5018687978723
:105A9000A08BB18B83C08281082F10E0F4E0000F4F
:105AA000111FFA95E1F727C0C6010E944B2CAB01EC
:105AB000BC014F3FFFEF5F07FFEF6F07FFEF7F076F
:105AC00019F421E030E07EC04230510561057105D6
:105AD00008F476C0D5011496ED91FC911597848D4C
